:020000040800F2
:10000000C80B0020ED010008C94A00082D3F000878
:10001000C54A00087D080008E573000800000000DC
:100020000000000000000000000000001D6A000841
:10003000B108000800000000CD4A0008216A00084D
:10004000070200080702000807020008070200086C
:10005000070200080702000807020008070200085C
:1000600007020008070200080702000881080008CC
:100070008D08000899080008A50800080702000874
:10008000070200080000000007020008070200083D
:10009000070200080702000807020008070200081C
:1000A000070200080702000807020008070200080C
:1000B00007020008070200080702000807020008FC
:1000C00007020008070200080702000807020008EC
:1000D00007020008B17300080702000807020008C1
:1000E00007020008070200080702000807020008CC
:1000F00007020008070200080702000800000000CD
:1001000000000000070200080000000007020008CD
:1001100007020008000000000702000807020008AC
:10012000070200080702000807020008070200088B
:10013000070200080000000000000000070200089D
:10014000070200080702000800000000000000008D
:10015000000000000000000000000000000000009F
:10016000000000000000000000000000070200087E
:10017000070200080000000000000000000000006E
:10018000000000000702000800000000000000005E
:10019000000000000000000000000000000000005F
:1001A000000000000000000007020008070200082D
:1001B000070200080702000807020008000000000C
:1001C000000000000702000800000000000000001E
:1001D0000702000807020008DFF80CD000F048FA18
:1001E0000048004739760008C80B002006488047C1
:1001F00006480047FEE7FEE7FEE7FEE7FEE7FEE70C
:10020000FEE7FEE7FEE7FEE7256A0008D9010008E1
:100210002DE9F05F0546002092469B46884606463B
:10022000814640241BE0284641464746224600F0CE
:1002300057F853465A46C01A914110D311461846F2
:10024000224600F03EF82D1A67EB01084F46224681
:100250000120002100F035F817EB00094E41201E67
:10026000A4F10104DFDC484631462A464346BDE896
:10027000F09FD2B201E000F8012B491EFBD270477B
:100280000022F6E710B513460A4604461946FFF762
:10029000F0FF204610BD30B50B460146002020225D
:1002A000012409E021FA02F59D4205D303FA02F583
:1002B000491B04FA02F52844151EA2F10102F1DCE3
:1002C00030BD202A04DB203A00FA02F100207047FA
:1002D0009140C2F1200320FA03F319439040704784
:1002E000202A04DB203A21FA02F00021704721FA8B
:1002F00002F3D040C2F120029140084319467047F2
:100300002DE9FE4F804681EA0300C00F0C460090A5
:1003100021F0004123F00045B8EB0200A94105D2CD
:100320004046214690461C460B46024623F00040BC
:10033000104347D0270DC7F30A00C3F30A510290B8
:10034000401A019040286BDAC3F3130040F4801B7D
:100350000098924620B10023D2EB030A63EB0B0B0B
:1003600001985946C0F140025046FFF7AAFF0646E1
:100370000D4650465946019A00F092F910EB0800DC
:100380006141002487EA115284EAE7731A4340D09E
:10039000009A62B3019A012A4FEA075215DC001B4A
:1003A00061EB02014FF0004202EA0752CDE9004240
:1003B000001C41F5801132462B4600F092F903B043
:1003C000BDE8F08F40462146F9E7001B61EB0201D2
:1003D000001C41F5801300185B412018A2F500179E
:1003E00047EB030140EAD570B6196D4111E06D0885
:1003F0004FEA360645EAC0754FEA0752001B61EB2B
:100400000201001C41F5801149084FEA3000001933
:10041000514132462B4603B0BDE8F04F00F052B9CF
:100420000098012240000023D0EB020263EBE0734E
:10043000009821464FEAE074B8EB000061EB04013C
:10044000E9E783F000435BE781F0004158E72DE9DD
:10045000FE4F81EA030404F0004421F000410094BF
:100460004FF0000B23F0004350EA01045ED052EA43
:1004700003045BD0C3F30A54C1F30A552C44A4F21D
:10048000F3340194A0FB0254C1F3130141F4801131
:10049000C3F3130343F4801301FB024400FB034E38
:1004A000840A970A44EA815447EA8357A4FB076801
:1004B00002958D0A05FB07854FEA932C04FB0C542B
:1004C0002705029D4FEA065847EA1637B5EB08059F
:1004D0006EEB070C870E920E47EA811742EA8312F1
:1004E000A7FB0201B6EB0B0164EB00042B0D43EA02
:1004F0000C335E1844EB1C50DA465146E7FB020110
:10050000C5F313044FEA0B3343EA14534FEA0432A2
:10051000019C43EA0603A4F10C040294009CCDE97B
:1005200000B400F0DEF803B0BDE8F08F0020014613
:10053000F9E72DE9F04D81EA030404F0004B21F0C6
:10054000004514464FF0000A23F0004150EA05022E
:1005500020D054EA01021DD0C5F30A570246C5F364
:100560001303C1F31300C1F30A5640F4801543F49A
:100570008013A7EB0608101BD64608F2FD3873EB74
:10058000050002D308F1010801E092185B41B8F1BF
:10059000000F03DA00200146BDE8F08D00204FF483
:1005A0008011064684460EE0171B73EB050705D342
:1005B000121B63EB050306434CEA010C49084FEAA2
:1005C000300092185B4150EA0107EDD152EA030076
:1005D00012D082EA040083EA0501084305D0101B0B
:1005E000AB4106D20122002306E000224FF0004377
:1005F00002E06FF0010253101AEB06004CEB0851B9
:1006000010EB0A0041EB0B01BDE8F04D00F05AB8C9
:10061000C1F30A52C1F3130140F2FF3341F48011D8
:100620009A4202DA00200146704740F233439A4270
:10063000A2F2334202DC5242FFF752BEFFF741BE44
:1006400030B5041E71F1000404DB4FF00044404259
:1006500064EB0101141E73F1000405DB1C464FF02E
:100660000043524263EB0403994208BF904230BDFD
:100670001CB509480090094801900546009C06E019
:10068000E06840F0010394E8070098471034AC425A
:10069000F6D3FFF7A5FD0000A4820008C48200087D
:1006A000202A06DBCB17203A41FA02F043EAE07336
:1006B00006E041FA02F3D040C2F120029140084323
:1006C0001946704710B5141E73F1000408DA401C77
:1006D00041F1000192185B411A4301D120F0010061
:1006E00010BD2DE9F04D92469B4611B1B1FA81F251
:1006F00002E0B0FA80F220329046FFF7E2FD0446B5
:100700000F4640EA0A0041EA0B0153465A460843A5
:1007100013D0114653EA010019D0C8F140025046E7
:10072000FFF7DEFD05460E46504659464246FFF7A6
:10073000C8FD084305D0012004E020463946BDE845
:10074000F08D0020054346EAE0762C4337430A98B3
:100750006305E40AA0EB08000022FD0A44EA4754BE
:100760000A3002D500200146E9E701051019694168
:10077000DDE9084500196941BDE8F04DA2E7000038
:100780000146806AC36DC26D13F0500F07D0D206C8
:1007900048BF00F095BA406D426B0846104742F4DE
:1007A0000071C16501680B68CA681B0703D4910713
:1007B00007D500F081BA12F4406FFAD1C9688904F4
:1007C000F7D4C16D21F48071C165C16DC90448BF02
:1007D00000F072BAC16D41F00101C16500F06CBA60
:1007E000806AC16D41F04001C165016E41F00401B4
:1007F000016600F065BA0000806A00F05FBA000090
:1008000070B5044600688168C90735D14FF6C076D7
:10081000C7F6FF76816806F17F02114209D0E06DCC
:1008200040F01000E065206E40F0010020660120DD
:1008300070BD8168314041F00101816000F046FFE8
:1008400021680A68D20717D1054603E021680868C5
:10085000C00711D18868C00704D18868304040F0D3
:100860000100886000F032FF401B0328EED32068AF
:100870000068C007EAD1D2E7002070BDFEE70000A3
:1008800040F2B030C2F2000000F0DABC40F290203A
:10089000C2F2000000F0D4BC40F2F020C2F200002E
:1008A00000F0CEBC40F25030C2F2000000F0C8BCF4
:1008B00070470000EFF3108072B600BFFEE7000043
:1008C00090F85820012A04BF02207047B0B582B0CA
:1008D000012280F858200022019200920368B3F1AF
:1008E000A04F2FD140F208344FF6006EC5F200043D
:1008F000CFF6FF7E54F80E209B681A43520721D48E
:10090000D1F800C02268BCF1000F22F4604326D069
:100910004A6890F8385042EA45321A4322604FF64E
:100920000052CFF6FF72A25854F80E301A43D20785
:1009300025D1226840F61F7389689A43114341EA22
:100940000C011BE0C16D41F02001C16501210022B5
:1009500080F8582002B0BDE8B040084670474FF616
:1009600000512360CFF6FF71615854F80E201143F7
:10097000C90704D1216840F61F729143216000210C
:10098000E5E70000F0B581B00022009290F8582011
:10099000012A01D102218CE10123076880F8583037
:1009A000BB685B0734D4D1E900351F26C5F30124A9
:1009B00007EB8404226B05F01F05AE40C3F384638C
:1009C000B243AB401A432263BA68BB6802F0040228
:1009D00003F00803D21840F0AD800A6807F1140351
:1009E0000426C2F34064D1F808E006EAD25C53F86A
:1009F0002450C2F304540722A240BEF1004F25EA5E
:100A000002050BD143F80C501A6842F000430DE088
:100A1000C16D41F02001C165012147E10EFA04F2E8
:100A20002A4343F80C201A6822F000437B61D1E985
:100A30000434FD68042B50D13A6E3A6E0B68C2F351
:100A4000846293FAA3F6B6FA86F65D0308BFC3F391
:100A500084664FF6FF73B242C0F2070303D13A6EC9
:100A600022F000423A667A6E7A6E0E68C2F38462B1
:100A700096FAA6F5B5FA85F51E4208BFC6F3846559
:100A8000AA4203D17A6E22F000427A66BA6EBA6E3A
:100A90000E68C2F3846296FAA6F5B5FA85F51E4291
:100AA00008BFC6F38465AA4203D1BA6E22F00042A1
:100AB000BA66FA6EFA6E0E68C2F3846296FAA6F50A
:100AC000B5FA85F51E4208BFC6F38465AA4231D146
:100AD000FA6E22F00042FA662CE0062202EA950243
:100AE0000E6807F1600504FA02FC55F823404FF246
:100AF0000002C0F2FF3206F0F846224046EA0C0639
:100B0000324342F0004245F823200A698B6955F8C8
:100B1000226026F08076334345F822300A690B7F45
:100B200055F82260012B26F0007608BF06F100760A
:100B300045F82260BA68D20743D10C68CA68D7F872
:100B4000B06023466FF3DF4326EA030C4FF6FF76CF
:100B500002F01805C0F20706EE4000252640C4F258
:100B60007F0546EA0C06AA42C7F8B06029D194FA7C
:100B7000A4F2B2FA82F2002B08BFA20E013202F0F8
:100B80001E0302F01F0201260025964002EB4202DE
:100B9000CFF6206505EB0255354345F000750A2B6D
:100BA00038BF46EA0255C5F3406307EB83038A6802
:100BB0005E69C5F304550724AC40A643AA403243FE
:100BC0005A610B680021C8F208010B426DD040F257
:100BD000083CC5F2000CDCF800400021CCF22131C9
:100BE0008B4204F0E07E04D01021C9F2C0018B4298
:100BF0002DD121022BD4B7F1A04F56D1DCF8001033
:100C000042F6635221F0E07141EA0E0141F4000125
:100C1000CCF8001040F20801C2F200010968C0F2ED
:100C20003E528909A1FB0212910901EB41010C22FC
:100C300002EB810100910099B9B300BF009901391D
:100C40000091009900294FF00001F7D12EE000211A
:100C5000CCF252718B4210D10021B1EB1E6F0CD13E
:100C6000ACF502718F4220D0DCF8001021F0E07169
:100C700041EA0E0141F0807115E0ACF502718F423E
:100C80004FF0000112D00022CCF68432934208BF0C
:100C900014F480020AD1DCF8001021F0E07141EA7E
:100CA0000E0141F48001CCF800100021002280F8F0
:100CB0005820084601B0F0BD7047000070470000A2
:100CC00070470000B0B582B000210028019143D0E8
:100CD000C16D39B9044600F0F5F8204600212166BF
:100CE00084F858100268916889004FF6C071C5F603
:100CF000FF7102D593680B4093609368DB001DD4AD
:100D0000936801F18051194041F08051916040F2A7
:100D10000801C2F20001096842F663538909C0F272
:100D20003E53A1FB03139909022303EB410100BFCA
:100D30000191019911B101990139F9E79168C9004F
:100D40000DD4C16D4FF0010E41F01001C165016E6F
:100D500041F00101016604E04FF0010EAFE04FF0F9
:100D6000000E9368C46D03F0040304F010041B1913
:100D7000C36D6DD123F481730233C3659368DB07C0
:100D80001AD140F2083C4FF600544FF60063C5F20A
:100D9000000CCFF6FF74CFF6FF735CF804405CF8EC
:100DA00003302343DB0707D14368DCF8004024F419
:100DB0007C142343CCF80030437FC46BD0E902C1DC
:100DC00044EA4333194390F8243041EA0C01012BE3
:100DD00041EA034306D1816A0024CFF6FE7404EB96
:100DE00041410B43C46A24B1016B04F4787421437C
:100DF0000B43D16844F20704CFF6F0742140194345
:100E0000D1601169436B21F0406119431161916810
:100E1000936801F0040103F00803C91840D190F869
:100E20003810037F490041EA8331D36844F2020459
:100E3000A3431943D1600369146973B144F4803149
:100E40001161D2F8C01043F6FF74A1430B430DE0CB
:100E500043F010024FF0010E30E024F480311161B4
:100E6000D2F8C01043F6FF7321EA0303C2F8C03082
:100E700090F84010136901290FD140F2FD7123EA67
:100E8000010CD0E91134D0E9131543EA0C032343D4
:100E90001943294341F0010301E023F001031361E9
:100EA0004169136B012923F00F0302D1016A013953
:100EB0000B431363C26D012161F30102C2657046E9
:100EC00002B0B0BD2DE9F04198B004460020179063
:100ED000CDE91500CDE9130002A84421FFF7D0F9B0
:100EE000206840F20011C5F20001884257D0B0F1ED
:100EF000A04F40F0B1804FF4004002904FF00050FE
:100F0000119002A800F020FD002818BFFFF7D2FCC6
:100F100040F27001C2F200010A6841F24C00C4F2D2
:100F20000200531C0B6042B9016841F4005101609A
:100F3000016801F400510191019901684FF4805852
:100F400041F0020101600068002700F002000190FA
:100F500001980320149040F20040C4F6000013A949
:100F6000CDF84C80159700F0D1FA40F290251C2066
:100F7000C2F20005C4F20200052180224FF4007382
:100F800085E8830005F114004FF400664FF0200C53
:100F9000C5E9037280E84810C5F8208053E04FF49B
:100FA000004002904FF00050119002A800F0CCFCDD
:100FB000002818BFFFF77EFC40F27001C2F200016A
:100FC0000A6841F24C00C4F20200531C0B6042B9A3
:100FD000016841F400510160016801F40051019180
:100FE00001990168002641F002010160006813A91F
:100FF00000F00200019001984FF40040139003208C
:10100000149040F20040C4F60000159600F07EFAFD
:101010001C20C4F2020040F2F0251430C2F2000598
:1010200024214FF4007385E8430005F11400802269
:101030004FF400674FF0200C80E888104FF4805088
:10104000C5E903622862284600F048F9002818BF65
:10105000FFF730FC6565AC6218B0BDE8F0810000B8
:101060002DE9F04140F20016C5F20006D6F808322C
:101070000768BF687F0703D490F85870012F02D12A
:101080000220BDE8F08103F01F070123092F80F83B
:10109000583056D8BB4040F221252B4251D00D4646
:1010A00090460446FFF7ACFB20B1002184F85810AD
:1010B000BDE8F0812168E06D40F601739843224657
:1010C00000F58070E0650FB1B14203D0D06D20F41F
:1010D0008010D065D06D40F28177C0044FF00000E1
:1010E00044BF106E20F006001066506D40F2F97695
:1010F000C0F60007C0F6000640F2E1740023C0F617
:101100000004C0E90B761C2744630F6082F8583056
:101110004B68144643F010034B60CB682A4643F0FB
:101120000103CB604031434600F06AF921684FF675
:10113000C0738A68C7F6FF731A4004328A60BDE83C
:10114000F081002180F858100120BDE8F0810000F6
:10115000014690F82500022827D180B50868D1E91A
:1011600010CE8A6C036823F00E030360136823F427
:1011700080731360026822F0010202600EF01F000B
:10118000012202FA00F0CCF80400D1E913205060EB
:10119000486D30B1026822F480720260D1E9160213
:1011A00042600020BDE8804002E00420C8630120C6
:1011B000012281F82520002281F8242070470000B8
:1011C00090F82510022930D180B50168D0E910CE01
:1011D000826C0B6823F00E030B600B6823F0010395
:1011E0000B60116821F4807111600EF01F02012163
:1011F00001FA02F2CCF80420D0E913325A60426DB1
:1012000032B1136823F480731360D0E9162353605E
:1012100080F82510826B002180F824100AB19047D5
:101220000021BDE88040084670470421C1630121C8
:10123000002280F8251080F824200846704700001E
:10124000B0B5D0E910C30268DCF8001003F01F034A
:101250000424D2F800E09C400C4218BF1EF00405A4
:101260001BD102249C400C4218BF1EF0020520D165
:10127000D94009071CD51EF0080108BFB0BD116890
:1012800021F00E011160012101FA03F2CCF80420D3
:10129000C16380F82510416B18E01168890603D4FA
:1012A000116821F004011160CCF80440016B91B980
:1012B000B0BD1168890606D4116821F00A011160D9
:1012C000012180F82510CCF80440C16A00220029D1
:1012D00080F82420ECD0BDE8B040084700284FF04B
:1012E000010C00F08A802DE9F04F0021C4F20201C8
:1012F00003684FF6F83201F5816ECBF6FD72734547
:1013000038BF02F580624CF6CD441A44CCF6CC448A
:10131000A2FB042903F0FC02A2F10802A2FB0428AC
:1013200000F1080B01F580646FF003069BE8040CE4
:101330003CBF0024C4F2020401F5026506EA9906E6
:10134000734538BF01F50065C0E91046022480F8F6
:1013500025401C6847F6F07724EA0707D0E90541E5
:1013600047EA0A0747EA0B07D0E907E93C4321436C
:1013700041EA0E0141EA0901114319600021C4F25A
:10138000020101F50861C164C8F3041173190CFA74
:1013900001F58364B2F5804F056504BF002141600B
:1013A000476840F68401FAB21A607B1EC4F202015B
:1013B000032B0D6012D8013A01EB8203002702F0E3
:1013C0001F02012643F87C7F01F1BC0706FA02F2F6
:1013D000C0E91537C265C1F8C02003E00021C0E9AB
:1013E0001511C1654FF0000C0121C0F83CC080F818
:1013F000251080F824C0BDE8F04F6046704700001B
:1014000090F824C0BCF1010F43D04FF0010C80F8DC
:1014100024C090F825C0BCF1010F37D12DE9F0416F
:101420004FF0020C80F825C04FF0000CC0F83CC013
:10143000D0F800C000F14C0E9EE83040DCF80060AF
:10144000BEF1000F26F00106CCF8006065601CBFFD
:10145000D0E916456560D0E91056846806F01F068D
:101460000127D0F8308007FA06F66E60CCF8043019
:10147000102C0B4604BF13460A46B8F1000FCCF8F7
:101480000830CCF80C2006D00E210BE0002180F8AB
:10149000241002207047DCF8001021F00401CCF881
:1014A00000100A21DCF800201143CCF80010806CF9
:1014B0000168C90303D5016841F480710160BEF180
:1014C000000F05D0DEF8000040F48070CEF8000078
:1014D000DCF8000040F00100CCF800000020BDE87E
:1014E000F0810000B0B5044600F0F0F8054640F287
:1014F0006400C2F200000068611C18BF044400BF11
:1015000000F0E4F8401BA042FAD3B0BD2DE9F04F43
:1015100083B00F68002F00F0CA8000F1200241F272
:10152000004540F2004A019200F13842C4F600053D
:101530000623C4F2010A4FEAB226A84208BF0523D7
:1015400000254FF0010E4FF0030B00244FF0000870
:10155000052E38BF4FEAB22300930AE00F6808F166
:10156000010837FA08F204F1020405F1040500F05D
:101570009E800EFA08F217EA020CEFD04F68122F85
:1015800017D80EFA07F616F0061F12D0D0F80890FA
:10159000CE680BFA04F329EA0303A64033438360C1
:1015A000436823EA0202C7F3001303FA08F31A435D
:1015B0004260C2688B680BFA04F922EA0902A34070
:1015C0001A4347F01003122BC26017D16FF00302C9
:1015D000DDF804B002EA58025BF8023005F01C06A0
:1015E0000F27D1F810E0B740BB430EFA06F73B4394
:1015F0004FF0010E4BF802304FF0030B03684F68B9
:101600006FEA09021A4007F00303A3401A43FB00E4
:101610000260A3D541F26003C4F202031A684FF6D8
:10162000084942F001021A601A68CFF6FF7902F009
:1016300001020292029A28F00302524452F8093041
:1016400005F00C070F26BE40B343009E06FA07F7CD
:101650003B4342F80930DAF800204B6842EA0C07B5
:10166000DE0358BF22EA0C07CAF80070DAF804203B
:101670009E0342EA0C0758BF22EA0C07CAF804701E
:10168000DAF80820DE0242EA0C0740F20C4658BFA6
:1016900022EA0C07CAF80870C4F2010632689B02FD
:1016A00042EA0C0758BF22EA0C07376056E703B03E
:1016B000BDE8F08F0069084018BF012070470000A6
:1016C0001823002A08BF2823C150704740F2C47075
:1016D000C2F200000068704740F2640040F2C4713A
:1016E000C2F20000C2F2000100680A6810440860FB
:1016F0007047000080B5032000F092F8002000F051
:1017000009F800281CBF012080BD00F031F800203E
:1017100080BD000040F26401C2F2000109680029A6
:1017200004BF0120704710B5044640F20800C2F221
:1017300000004FF47A720068B2FBF1F1B0FBF1F0F7
:1017400001F00CF901460F2C4FF001000ED80029D2
:1017500018BF10BD4FF0FF302146002200F034F8D2
:1017600040F268010020C2F200010C6010BD0000D0
:1017700082B041F25800C4F20200816841F00101D8
:101780008160816801F0010101910199016841F0D6
:1017900080510160006800F080500090009802B015
:1017A00000F0C8B8002848BF704700F01F010122B0
:1017B00002FA01F11C2202EAD0004EF20012CEF22F
:1017C000000281507047000010B54EF60C5CCEF25E
:1017D000000CDCF80030C3F3022E8EF00704042C5A
:1017E00028BF0424BEF103034FF0FF3E0EFA04F4B9
:1017F00038BF0023A14399400EFA03F39A431143E3
:1018000000F1604200F00F03090102F56442043B5D
:101810006344002848BF03F10C02117010BD0000A2
:101820004EF60C51CEF200010A684FF6FF031A4043
:1018300060F30A2242F0806040F0FD70086070475B
:1018400047F2000CC4F2000CDCF80020B0F5007F79
:1018500035D0002866D1DCF8800002F4C06220F4A4
:101860008070B2F5806FCCF8800026D1DCF80000E3
:10187000012262F34A20CCF8000040F20800C2F2D4
:1018800000000068322358434DF68363C4F21B33D3
:10189000A0FB030302EB9340002200BFDCF814100E
:1018A000013842F10003490501D5002BF6D1DCF8DF
:1018B0001400400544BF0320704700207047DCF847
:1018C000800002F4C06140F48070B1F5806FCCF804
:1018D0008000F2D1DCF80000012161F34A20CCF84D
:1018E000000040F20800C2F20000006832225043BB
:1018F0004DF68362C4F21B32A0FB020201EB924060
:10190000002200BFDCF81410013842F10003490541
:1019100001D5002BF6D1DCF81400400544BF0320AC
:101920007047CAE7022060F34A22CCF8002000206A
:101930007047000047F20800C4F20000016841F45B
:1019400080410160704700002DE9F04381B081467D
:10195000807841F288060007C4F2020601D4002014
:101960004AE056F8300C5FEAC0080BD456F8300C49
:1019700040F0805046F8300C56F8300C00F08050A3
:101980000090009847F20004C4F20004206840F47C
:1019900080702060FFF79AFE054600BF2068C705EB
:1019A00008D4FFF793FE401B0328F7D30320002F32
:1019B00003D418E00020002F15D5B16811F4407150
:1019C00000F0EF80D9F84020914240F0EF80C90745
:1019D00040F0FB8038B9B068D9F8401020F440706E
:1019E0000843B0600020B8F1000F05D456F8301C51
:1019F00021F0805146F8301CD9F80010CA0712D1E6
:101A00008A0719D44A0720D40A0727D48A062ED475
:101A10004A0635D40A063CD4CA0543D48A054AD4BA
:101A20004A0551D460E03268D9F8043022F003024C
:101A30001A4332608A07E5D53268D9F8083022F0B7
:101A40000C021A4332604A07DED53268D9F80C30EE
:101A500022F030021A4332600A07D7D53268D9F82B
:101A6000103022F0C0021A4332608A06D0D53268A4
:101A7000D9F8143022F440621A4332604A06C9D5BC
:101A80003268D9F8183022F440521A4332600A06FC
:101A9000C2D53268D9F81C3022F440421A43326071
:101AA000CA05BBD53268D9F8203022F440321A4337
:101AB00032608A05B4D53268D9F8243022F4402245
:101AC0001A4332604A050FD53268D9F8283022F41B
:101AD00040121A43B3F5801F326005D156F87C2CB2
:101AE00042F4801246F87C2C0A050FD53268D9F8EA
:101AF0002C3022F440021A43B3F5800F326005D136
:101B000056F87C2C42F4801246F87C2CCA040FD57F
:101B10003268D9F8303022F040721A43B3F1807F36
:101B2000326005D156F87C2C42F4801246F87C2CA9
:101B30008A040FD53268D9F8343022F040621A4353
:101B4000B3F1006F326005D156F87C2C42F480125C
:101B500046F87C2C4A040FD53268D9F8383022F088
:101B600040621A43B3F1006F326005D156F87C2C05
:101B700042F4801246F87C2C09040FD53168D9F85C
:101B80003C2021F040511143B2F1805F316005D11A
:101B900056F87C1C41F4803146F87C1C01B0BDE84D
:101BA000F0830021C9073FF415AF0EE0B168B268B9
:101BB00021F4407142F48032B260B26822F4803283
:101BC000B260B160C9073FF405AF0446FFF77EFD80
:101BD000054641F2893700BFB068800709D4FFF796
:101BE00075FD401BB842F7D3032000287FF4FBAEFD
:101BF000F1E6204600287FF4F6AEECE62DE9F0474A
:101C0000002800F0FE8042F2000AC4F2020A0446F4
:101C1000DAF800000D4600F00F0081420DD9DAF825
:101C2000000020F00F002843CAF80000DAF8000096
:101C300000F00F00A84240F0E480216841F208085B
:101C4000C807C4F202080CD14FF0000920688107D0
:101C50004BD4B9F1000F61D0D8F8000020F0F000AB
:101C60005AE0606858F8082C022800F0C880032861
:101C700040F0CA80920140F1C480D8F80420D8F81E
:101C8000043042F20046C3F3031302F00302D8F813
:101C900004700133C0F2F406032A04BF43F2006665
:101CA000C0F26E16B6FBF3F2D8F80430C7F306277D
:101CB0007A43C3F34163022707EB4303B2FBF3F21A
:101CC0004BF20043C0F2C4439A4240F2E480D8F899
:101CD000002012F0F00F00F0D480890740F1DB8083
:101CE000A168002940F0D780CBE0410705D5D8F89E
:101CF000001041F4E061C8F80010000706D5D8F8DC
:101D00000000072161F30D20C8F80000D8F800009A
:101D1000A16820F0F0000843C8F80000DAF80000DD
:101D200000F00F00854219D2DAF8000020F00F0011
:101D30002843CAF80000FFF7C9FC064641F288377D
:101D4000DAF8000000F00F00A84207D0FFF7BEFC51
:101D5000801BB842F4D90320BDE8F0872068410712
:101D600007D5D8F80010E26821F4E0611143C8F803
:101D70000010000708D5D8F80000216920F4605051
:101D800040EAC100C8F80000D8F8000042F2004163
:101D9000C0F2F40100F00C000428084600F09C801A
:101DA000D8F8000000F00C00082843F20060C0F2F0
:101DB0006E1000F09180D8F8002002F00C020C2A7E
:101DC00040F08980D8F80420D8F8043002F00302EB
:101DD000C3F30313D8F804700133032A08BF014684
:101DE000B1FBF3F0D8F80410C7F30627C1F3416143
:101DF0000222784302EB4101B0FBF1F06CE0910369
:101E000004D40120BDE8F0875105FAD5D8F80010B8
:101E100001F00C0104293ED0D8F8001001F00C01AB
:101E2000082938D0D8F8001001F00C010C2932D163
:101E3000D8F80410D8F8042042F20047C2F3031285
:101E400001F00301D8F804300132C0F2F40703298D
:101E500004BF43F20067C0F26E17B7FBF2F1D8F887
:101E60000420C3F306235943C2F34162022303EB68
:101E70004202B1FBF2F14BF20042C0F2C442914285
:101E800009D9D8F80010082262F307114FF00109B0
:101E9000C8F8001001E04FF00009D8F8001021F058
:101EA00003010843C8F80000FFF710FC064641F2A2
:101EB000883700BFD8F80000616800F00C00B0EB74
:101EC000810F3FF4C3AEFFF701FC801BB842F1D98C
:101ED0000320BDE8F0870020D8F8001048F2522215
:101EE000C1F30311C0F60002515C40F2080201F098
:101EF0001F0120FA01F140F26800C2F20000006800
:101F0000C2F200021160BDE8F047FFF703BC000019
:101F100040F2080041F20801C2F20000C4F20201DE
:101F20000068096848F26222C1F30221C0F600028B
:101F3000515C01F01F01C8407047000040F20800EA
:101F400041F20801C2F20000C4F20201006809680F
:101F500048F26222C1F3C221C0F60002515C01F0D6
:101F60001F01C8407047000041F20C01C4F2020199
:101F700051F8040C42F20042C0F2F40200F00C00EE
:101F80000428104608BF704751F8040C00F00C00FC
:101F9000082843F20060C0F26E1025D051F8043CCE
:101FA00003F00C030C2B1CBF0020704780B5D1F848
:101FB00000C00B680CF0030CC3F3031E0B680EF19A
:101FC000010EBCF1030F08BF02460968B2FBFEF028
:101FD000C3F30623C1F341610222584302EB4101DE
:101FE000B0FBF1F0BDE8804070470000002804BF5E
:101FF000012070472DE9F04182B00446007841F29B
:102000000006C007C4F202061DD12078800737D42D
:10201000207800075AD42078400778D420788006AA
:1020200000F1BF80E069002800F0CD81B16801F0C7
:102030000C010C2940F01E81012840F08C81012008
:1020400002B0BDE8F081B06800F00C01F06808292A
:1020500054D0032281F00C0122EA00000844B0FAB7
:1020600080F040094AD165683068B5F5A02F00F0CE
:10207000C680B5F5803F40F0C98040F48030CBE0A9
:10208000B068F16800F00C00042864D001F003018E
:1020900080F00C0081F002010844B0FA80F04009A1
:1020A00059D1E1683068002900F0D18040F4807097
:1020B0003060FFF70BFB05463068400500F1F0800B
:1020C000FFF704FB401B0228F6D92AE16169D6F824
:1020D0009400002900F0818040F00100C6F89400CF
:1020E000FFF7F4FA054600BFD6F89400800792D4B3
:1020F000FFF7ECFA401B0228F6D912E130688003A2
:102100007FF583AF606800287FF47FAF39E0B06D62
:102110005FEAC00808D4B06D40F08050B065B06D83
:1021200000F080500190019847F20007C4F20007C8
:102130003868C00529D4386840F480703860FFF7EB
:10214000C5FA05463868C0051FD4FFF7BFFA401B23
:102150000228F7D9E5E03068400501D5E06880B194
:102160007068216920F0FE4040EA0160706040F232
:102170006800C2F200000068FFF7CCFA00283FF4C4
:1021800047AF012002B0BDE8F081A568D6F8900005
:10219000052D00F0A280012D40F0A88040F0010044
:1021A000ACE0A169D6F89800002900F0818040F0E9
:1021B0000100C6F89800FFF789FA0546D6F898009E
:1021C00080073FF52FAFFFF781FA401B02284FF041
:1021D0000300F3D902B0BDE8F08120F00100C6F899
:1021E0009400FFF773FA0546D6F8940080077FF550
:1021F00012AFFFF76BFA401B0228F5D991E040F4CB
:1022000080203060306840F4803005E020F4803079
:102210003060306820F480203060FFF757FA002DDE
:10222000054610D0306880033FF5EFAEFFF74EFA59
:10223000401B6428F6D974E0FFF748FA401B642875
:102240004FF00300C6D830688003F5D4DDE620F4F3
:1022500080703060FFF73AFA054600BF30684005ED
:102260007FF5D6AEFFF732FA401B02284FF003008D
:10227000F4D9AFE73168022821F08071316040F075
:10228000A680FFF723FA05463068800140F1B98047
:10229000FFF71CFA401B02284FF00300F4D999E71E
:1022A0007068216920F0FE4040EA01607060AFE68E
:1022B00020F00100C6F89800FFF708FA054600BFB5
:1022C000D6F8980080077FF5ADAEFFF7FFF9401B09
:1022D00002284FF00300F3D97CE740F00400C6F871
:1022E0009000D6F8900040F0010007E020F00100D7
:1022F000C6F89000D6F8900020F00400C6F89000D0
:10230000FFF7E4F9002D054641F2883716D000BFEB
:10231000D6F89000800715D4FFF7D8F9401BB842D3
:10232000F6D9032002B0BDE8F08100BFFFF7CEF977
:10233000401BB8424FF003003FF64CAFD6F8900078
:102340008007F3D4B8F1000F3FF568AEB06D20F010
:102350008050B06562E6F068216A00F003028A42AC
:102360007FF40FAF626A6FF00F0300F0F00103EB30
:10237000021291427FF405AFA16A00F4FE42B2EB73
:10238000012F7FF4FEAEE16A00F07842B2EBC16F3C
:102390007FF4F7AE226B0023CFF6E07303EA02521C
:1023A00000F4C001A2F5001291427FF4EAAE616B25
:1023B0004FF07E4202EA016100F0C06001F17E410F
:1023C00088427FF4DEAE002002B0BDE8F081F06804
:1023D0004FF6FF7120F00300F060F068CFF6EE6179
:1023E0000840F060FFF772F9044600BF30688001D2
:1023F000E9D5FFF76BF9001B02284FF00300F5D970
:10240000E8E6F06848F20C01C0F29F1104F12007E1
:1024100000EA010C8ECF6FF00F00D4E90C5400EBF2
:1024200002100022CFF6E07241EA0C0102EA0552E6
:102430000843A2F500124FF07E4540EA032005EA6A
:102440000465104305F17E4540EAC7602843F0600B
:10245000306840F080703060F06840F08070F0606C
:10246000FFF734F9044600BF30688001ABD4FFF7B2
:102470002DF9001B02284FF00300F5D9AAE6000051
:1024800080B542F60400C4F2000003684FEA13402E
:10249000C3F3042E03F03F0CC3F34233C87081F83A
:1024A00001E081F802C00B700AB1002080BDC2B209
:1024B0001209A2EB820200EB4200C8704FEA1E1024
:1024C000A0EB80000EEB400048704FEA1C10A0EB20
:1024D00080000CEB40008870002080BD80B542F683
:1024E0000000C4F2000083684B6003696FF3DF33C0
:1024F0008B600368C3F30540C3F3062E03F07F0C23
:10250000C3F38053087081F801E081F802C0CB70FA
:102510000AB1002080BD0209A2EB820200EB42005A
:1025200008704FEA1E10A0EB80000EEB40004870D0
:102530004FEA1C10A0EB80000CEB400088700020DC
:1025400080BD0000F0B581B0B0B3044690F825001E
:1025500028B9002084F82400204600F063F842F6F1
:1025600018070220C4F2000784F82500CA20F8608A
:102570005320F86057F80C0C40061FD457F80C0C89
:1025800040F0800047F80C0CFFF7A0F857F80C1C3F
:10259000490639D406460025FFF798F8801BB0F5A8
:1025A0007A7F84BF032584F8255057F80C0C400629
:1025B00005D4032DF0D102E001252FE0002535BB25
:1025C00038684FF6BF71CFF68F3108403860231D51
:1025D00022690BCB1043A2693E6810433043386038
:1025E00043EA014047F8080C204604F0CBF90546C1
:1025F00068B93868D4E9071220F060406369104375
:1026000008431843386002E00025002DD8D0FF2091
:10261000002DF86004BF012084F82500E8B201B065
:10262000F0BD000010B592B0044601A84421FDF7AA
:1026300027FE206842F60001C4F20001884201D062
:1026400012B010BD4FF4002001904FF400701190B3
:1026500001A8FFF779F9002818BFFEF72BF941F21E
:102660005800C4F20200816B41F4004181630168AB
:1026700041F480610160006800F48060009000987F
:1026800012B010BD2DE9F047044690F82400022551
:10269000012800F09780012084F8240084F8255058
:1026A0003AB14878CA7891F80290000240EA0248AC
:1026B00045E048784FF0CD0CC20642BF00F0EF0075
:1026C0000A304870CA784878A2F10A07FEB206FBC1
:1026D0000CF6F60A06EB8605A7EB4507D3B207EB27
:1026E000061791F80290092B88BF07F11002A0F19C
:1026F0000A07FEB206FB0CF6F60A06EB8605C3B225
:10270000A7EB450707EB0617092B88BF07F1100059
:10271000C0B2D2B2000240EA0248A9F10A02D3B222
:1027200003FB0CF3DB0A03EB83075FFA89F0A2EBF0
:10273000470202EB0312092888BF02F1100942F692
:102740000C07C4F20007CA2091F800A0B86153201A
:10275000B861386840061AD4386840F080003860A4
:10276000FEF7B4FF396849062FD40646002500BF9E
:10277000FEF7ACFF801BB0F57A7F84BF032584F899
:1027800025503868400603D4032DF1D100E0002520
:1027900075B95FFA89F040EA08004FEA4A3120F043
:1027A000C000084347F8080C204604F0EBF8054643
:1027B000FF20002DB86104BF012084F8250000200F
:1027C00084F82400E8B2BDE8F0870025002DEFD1A1
:1027D000DFE700002DE9F04381B0044690F82400C3
:1027E0000225012800F0B58042F60C070120C4F252
:1027F000000784F82400CA2084F82550B8615320CB
:10280000B86138689146884640061AD4386840F066
:1028100080003860FEF75AFF3968490627D406461B
:10282000002500BFFEF752FF801BB0F57A7F84BF02
:10283000032584F825503868400603D4032DF1D1D0
:1028400000E00025002D7AD1F868B9F1000F12D010
:1028500040065CBF002088F8030098F8012098F833
:10286000001098F80200120242EA01414CE00025F3
:10287000002D64D1E8E740065CBF002088F8030023
:1028800098F800104FF0CD0CA1F10A06F5B205FB47
:102890000CF598F80120ED0A05EB8503A6EB430340
:1028A000A2F10A0603EB0513F5B298F802005FFAED
:1028B00081FE05FB0CF5BEF1090F88BF03F1100185
:1028C000D3B2ED0A5FFA81FE05EB8501092BA0F179
:1028D0000A03A6EB4101DEB206FB0CF601EB051183
:1028E0004FEAD62688BF01F11002D1B206EB860569
:1028F0000902C2B2A3EB450341EA0E4103EB061302
:10290000092A88BF03F11000C0B298F803200843D9
:1029100047F67F7140EA8250C0F27F01084047F8D5
:102920000C0CF86820F48020F860D8E90301FA68FC
:1029300008431043F860204604F024F80546FF20C1
:10294000002DB86104BF012084F82500002084F820
:102950002400E8B201B0BDE8F0830000411E002071
:10296000B0EB116F1CBF012070474EF21002CEF287
:10297000000251604EF62351CEF20001F0230B709D
:10298000072190601160704790F83C20012A04BF35
:1029900002207047F0B5012280F83C20D1E90232D4
:1029A000D1E900CE22F47C5223F470531A4348F24A
:1029B000FF73CFF6F07303EA0E0342EA030E0A69CF
:1029C0002CF477234EEA030C22F476224B6942EA78
:1029D0000C021A430B6B22F4742C23F470238A69C3
:1029E00043EA0C0343EA0243026843F2004EC4F296
:1029F000010E42F6004C7245C4F2010C01D0624552
:102A000003D1CC6923F080532343724501D0624542
:102A100017D101F12006002770CECFF6F04723F042
:102A20007C7307EA0656334324F00074234372454F
:102A300043EA050301D0624503D1C96A23F000537C
:102A40000B430021536480F83C100020F0BD0000CF
:102A500090F83C20012A4FF002024DD070B50123BE
:102A600080F83C3080F83D20026843F2004C546806
:102A70009368C4F2010C42F6004E6245C4F2010EA6
:102A800001D0724503D14D6824F470042C434FF6F5
:102A90008F75CFF6FF550E682C4042F6FF35C4F215
:102AA00001053443AA4254600FDCB2F1804F16D0C6
:102AB00040F20046C4F20006B24210D040F60006D2
:102AC000C4F20006B2420AD00EE0724507D044F2CA
:102AD0000006C4F20106B24201D0624504D1896801
:102AE00023F08003194391600121002280F83D10FA
:102AF00080F83C20BDE8704010467047002804BFB5
:102B00000120704710B5044690F83D0028B9002018
:102B100084F83C00204600F023F8022084F83D00B1
:102B20002068211D03F088FF012084F8480084F804
:102B30003E0084F83F0084F8400084F8410084F8A7
:102B4000420084F8430084F8440084F8450084F887
:102B5000460084F8470084F83D00002010BD0000C6
:102B60002DE9F04186B001680022B1F1804F059255
:102B7000CDE903220292019264D040F20042C4F2F5
:102B80000002914211D042F60040C4F2010081429D
:102B900055D141F25800C4F20200816841F400614D
:102BA0008160806800F4006057E0804641F2580080
:102BB000C4F202000168002641F0020101600168D0
:102BC00001F002010091009950F80C1C41F0020143
:102BD00040F80C1C50F80C0C01A900F00200009009
:102BE00000981020019002200290059040F20040D1
:102BF000C4F60000CDE90366FEF788FC40F25034CD
:102C00004420C2F20004C4F202003D214FF40073DC
:102C100084E8430004F1140080224FF4006520276B
:102C2000A8C02046C4E903622662FEF757FB0028CD
:102C300018BFFDF73FFEC8F82440C4F8288006B04E
:102C4000BDE8F08141F25800C4F20200016841F091
:102C500001010160006800F001000090009806B0DA
:102C6000BDE8F08190F83C20012A4FF0020200F00C
:102C7000A18080B5012380F83C3080F83D20D0F859
:102C800000C08822DCF80830CFF6CE721A40CCF8AB
:102C900008200B686F2B29DC2F2B38DD4F2B45DCF0
:102CA000302B73D0402B7DD1D1F804E0C968DCF81B
:102CB0002030DCF8202022F00102CCF82020DCF8C3
:102CC000182022F0F00242EA011123F00A0242EA3F
:102CD0000E02CCF81810CCF82020DCF808104FF6C3
:102CE0008872CFF6CF721140473159E01F22C0F2EF
:102CF0001002934211DD3F21C0F210018B423BDCF8
:102D00002021C0F210018B4240D030213AE0EBB3D9
:102D1000102B3BD0202B39D044E0702B6ED0B3F574
:102D2000005F7ED0B3F1101F30D03BE0502B43D07A
:102D3000602B37D1D1F804E0C968DCF8203023F0EB
:102D40001003CCF82030DCF81830DCF8202023F415
:102D5000704322F0A00243EA013142EA0E12CCF89D
:102D60001810CCF82020DCF808104FF68872CFF647
:102D7000CF721140673113E04021C0F210018B4245
:102D800004D07021C0F210018B420BD1DCF8081086
:102D90004FF68872CFF6CF721140194341F0070108
:102DA000CCF808100121002280F83D1080F83C206A
:102DB000BDE8804010467047D1F804E0C968DCF8EF
:102DC0002030DCF8202022F00102CCF82020DCF8B2
:102DD000182022F0F00242EA011123F00A0242EA2E
:102DE0000E02CCF81810CCF82020DCF808104FF6B2
:102DF0008872CFF6CF7211405731D1E7D1E901E3A4
:102E0000C968DCF8082043EA0E0322F47F4243EA53
:102E100001211143CCF80810DCF8081041F07701CB
:102E2000BEE7D1E901E3C968DCF8082043EA0E03F4
:102E300022F47F4243EA01211143CCF80810DCF868
:102E4000081041F48041ABE7704700007047000074
:102E50007047000090F83C30012B04BF02207047FF
:102E6000F0B5012380F83C300368D1E900C4D1F803
:102E70000CE01D6A082A38D0042A1ED0002A4ED140
:102E800025F001021A621A4642F6FF3752F8186F0F
:102E90001D6AC4F20107BB4261DCB3F1804F70D000
:102EA00040F20047C4F20007BB426AD040F6000778
:102EB000C4F20007BB4264D07CE025F010021A6225
:102EC0001A4652F8185F24024FF2FF071E6ABC43ED
:102ED00025F473456EF30F3444EA050726F0A00687
:102EE0000CF00A0546EA051630E025F480721A62F5
:102EF0001A4652F81C5F1E6A25F0F3056EF307149C
:102F000044EA050726F420660CF00A0546EA052681
:102F100017601E62136823F00C03136041E025F470
:102F200080521A621A4652F81C5F24024FF2FF07C1
:102F30001E6ABC4325F473456EF30F3444EA05075B
:102F400026F420460CF00A0546EA053617601E6294
:102F5000136823F4406313608968090222E042F693
:102F60000047C4F20107BB420BD044F20007C4F291
:102F70000107BB4205D043F20047C4F20107BB4240
:102F800018D126F00306344325F00A070CF00A0690
:102F90006EF3071437449C611F629F6927F00C078A
:102FA0009F618968136819431160002180F83C1003
:102FB0000020F0BD46F00104E6E70000002804BF51
:102FC0000120704710B5044690F83D0028B9002054
:102FD00084F83C00204600F023F8022084F83D00ED
:102FE0002068211D03F028FD012084F8480084F8A2
:102FF0003E0084F83F0084F8400084F8410084F8E3
:10300000420084F8430084F8440084F8450084F8C2
:10301000460084F8470084F83D00002010BD000001
:103020007047000070B559B10C1F4FEAB40C43252E
:103030004FF03F0EBCF1040F38BF0EEBB40500E0BB
:103040003E254724455D082908BF4624042908BFBA
:103050004524002908BF4424045D022D4FF0020CD2
:1030600018BF022C01D1604670BD012D4FF0010C3C
:1030700008BF012CF7D10AB9002BF4D161B10D1FA3
:103080004FEAB505032D17D8DFE805F002120A0E46
:10309000022580F83F5012E0022580F83E500EE0F5
:1030A000022580F841500AE0022580F8425006E0EF
:1030B000022580F8405002E0022580F8435041B1DB
:1030C000082909D0042914BF80F8475080F84550DA
:1030D00004E080F8445001E080F846504FEAB10522
:1030E000032D00F27D800E46DFE805F002571F3BFE
:1030F000456A46F64134C0F60004EC62456A46F67D
:10310000B534C0F600042C63456A46F6ED34C0F6CB
:10311000000401686C630546406A3431FEF770F9BB
:10312000002853D14FF4007254E0C56A46F641348A
:10313000C0F60004EC62C56A46F6B534C0F6000479
:103140002C63C56A46F6ED34C0F6000401686C6372
:103150000546C06A3C31FEF753F9B8BB4FF4006234
:1031600038E0056B46F64134C0F60004EC62056BAE
:1031700046F6B534C0F600042C63056B46F6ED3414
:10318000C0F6000401686C630546006B4031FEF731
:1031900037F9D8B94FF480521CE0856A46F64134BD
:1031A000C0F60004EC62856A46F6B534C0F6000449
:1031B0002C63856A46F6ED34C0F6000401686C6342
:1031C0000546806A3831FEF71BF908B1012070BD51
:1031D0004FF480622B683146DE6828463243DA605D
:1031E000006801F01F010122036A02FA01F123EADB
:1031F00001020262026A114342F6FF32C4F2010286
:10320000904201620DDCB0F1804F1CD040F20041D1
:10321000C4F20001884216D040F60001C4F2000159
:103220000FE042F60041C4F2010188420BD044F2A3
:103230000001C4F20101884205D043F20041C4F20A
:10324000010188420DD181680722C0F201021140BC
:1032500006294FF0000C3FF406AFB1F5803F3FF474
:1032600002AF01684FF0000C41F0010101606046BF
:1032700070BD000090F83C30012B04BF0220704765
:103280004FEAB2020123052A80F83C3000F2C881DF
:103290002DE9F041DFE812F0060031018B00DE007D
:1032A0004F00820103681A6AA3F1804622F00102EE
:1032B0001A621D6A1A465C6852F818CF8F68A6F524
:1032C0009636D1F800E025F002054FEAB626072E23
:1032D00045EA07050AD80127B74017F0E50F1FBFD9
:1032E000CF6825F00C0527F004073D43072E0BD8C7
:1032F000012707FA06F616F0E50F1FBFD1E90567AB
:1033000024F4407434433C434FF68C76CFF6FE767B
:103310000CEA060747EA0E075C609F614F6809697F
:103320005F631D629F6947F008079F619F6927F0EF
:1033300004079F616FE103681A6AA3F1804722F4D2
:1033400080321A621A46A7F59637D3F820805D6856
:1033500052F850EFD1F800C08E684FEAB727072F18
:1033600009D80124BC4014F0E50F1EBF4C6925F4B8
:10337000803545EA042528F4003444EA06444FF633
:103380008C76CFF6FE7603360EEA060747EA0C0780
:103390005D601F654F6809699F641C621F6D47F07F
:1033A00008071F651F6D27F004071F6533E10368D9
:1033B00043F200461A6AC4F2010622F480721A62CD
:1033C0001D6A1A46D3F804C052F81CEFB3428E6847
:1033D000D1F8008025F4007545EA062505D042F6AF
:1033E0000046C4F20106B34207D1CE6840F2FF475F
:1033F000360225F44065BE433543A3F18046A6F569
:1034000096364FEAB626072E0CD8012707FA06F69D
:1034100016F0E50F1FBFD1E905672CF44054374380
:1034200044EA071C4FF68C74CFF6FE740EEA0407CC
:1034300047EA0807C3F804C0DF614F680969DF6322
:103440001D62DF6947F00807DF61DF6927F00407C5
:10345000DF61E0E0036843F200461A6AC4F2010645
:1034600022F480521A621D6A1A46D3F804C052F838
:103470001C8FB3428E68D1F800E025F4005545EA70
:10348000063505D042F60046C4F20106B34207D124
:10349000CE6844F6FF77360325F44045BE433543F6
:1034A000A3F18046A6F596364FEAB626072E0CD82D
:1034B000012707FA06F616F0E50F1FBFD1E90567E9
:1034C0002CF44044374344EA871C48F6FF44CFF6C7
:1034D000FF6404EA080444EA0E27C3F804C0DF616D
:1034E0004F6809691F641D62DF6947F40067DF6187
:1034F000DF6927F48067DF618CE0036843F20046F0
:103500001A6AC4F2010622F010021A621D6A1A46F3
:103510005C6852F818CFB3428E68D1F800E025F00D
:10352000200545EA061505D042F60046C4F201061C
:10353000B34207D1CE686FF0400725F0C00507EA17
:1035400006163543A3F18046A6F596364FEAB62611
:10355000072E0CD8012707FA06F616F0E50F1FBF55
:10356000D1E9056724F440643E4344EA860448F602
:10357000FF46CFF6FF660CEA060747EA0E275C60B7
:103580009F614F6809699F631D629F6947F40067E7
:103590009F619F6927F480679F613BE003681A6A17
:1035A000A3F1804722F480121A621A46A7F59637D3
:1035B000D3F820805D6852F850EFD1F800C08E68D3
:1035C0004FEAB727072F09D80124BC4014F0E50FB4
:1035D0001EBF4C6925F4802545EA842528F4001493
:1035E00044EA065448F6FF46CFF6FF6606F54076F5
:1035F0000EEA060747EA0C275D601F654F680969F8
:10360000DF641C621F6D47F400671F651F6D27F4A0
:1036100080671F650902136819431160BDE8F04116
:10362000002180F83C10002070470000002804BFF3
:103630000120704710B5044690F83D0028B90020DD
:1036400084F83C00204600F023F8022084F83D0076
:103650002068211D03F0F0F9012084F8480084F867
:103660003E0084F83F0084F8400084F8410084F86C
:10367000420084F8430084F8440084F8450084F84C
:10368000460084F8470084F83D00002010BD00008B
:103690007047000080B559B10B1F4FEAB30C4322AD
:1036A0004FF03F0EBCF1040F38BF0EEBB30200E049
:1036B0003E22825C012A1CBF012080BD61B10A1F2D
:1036C0004FEAB202032A17D8DFE802F002120A0E0C
:1036D000022280F83F2012E0022280F83E200EE015
:1036E000022280F841200AE0022280F8422006E00F
:1036F000022280F8402002E0022280F84320026883
:1037000001F01F000121136A01FA00F083431362E4
:10371000136A18431062A2F18040A0F596304FEA78
:10372000B02342F6FF30062BC4F201003ED8994088
:1037300011F0650F3AD0516C824241F4004151645E
:103740000FDCB2F1804F1ED040F20040C4F2000006
:10375000824218D040F60000C4F20000824212D02B
:103760001EE042F60040C4F2010082420BD044F257
:103770000000C4F20100824205D043F20040C4F2CE
:10378000010082420CD190680721C0F20101014082
:1037900006294FF0000008D0B1F5803F08BF80BD7A
:1037A000106840F001001060002080BD8242C8DD3A
:1037B00043F6FF71C4F201018A4202DC42F6004086
:1037C000D7E744F20001C4F201018A42DBD044F69B
:1037D0000001C4F201018A42ADD0E1E7B0B5044670
:1037E00090F83C0001284FF0020008BFB0BD012551
:1037F00084F83C5084F83D00204603F025FA002868
:103800004FF0010009D12068C16821F04001C1607A
:10381000C16821F48041C1600020002184F83D503E
:1038200084F83C10B0BD000090F88010012904BF5E
:10383000022070472421C0F8841001680A680B68D0
:1038400022F0005223F001030B60002343660A605C
:103850002021C0F8841080F88030002070470000DC
:1038600010B50446D0F8880020280AD100294FF06E
:10387000010018BF002A00D110BD94F88000012873
:1038800001D1022010BD012084F88000E0662046AE
:1038900003F0F2FC002818BF10BDE16E01291CBF27
:1038A000012010BD216810220A620A6842F010024D
:1038B0000A6010BD10B540F25870C2F200000C460C
:1038C00003F062FF50B940F2587040F2D061C2F28A
:1038D0000000C2F20001224603F08AFF40F2D060ED
:1038E000C2F200008021FCF7CBFC10BD7047000045
:1038F00090F88020012A04BF02207047B0B5012350
:10390000242280F88030C0F884200268D0F864E077
:10391000D2F800C01468BEF1000F24F00104146056
:10392000946824F0606441EA040191601BD09168BE
:10393000936848F2942E5B0FC0F6000E48F29C2567
:103940001EF80340C0F60005EB5CE400B4FBF3F3A3
:10395000C1F34261A0F86A301EF80130695CDB00F7
:10396000B3FBF1F301E0A0F86A302021A0F8683041
:10397000C2F800C0C0F88410002180F88010002038
:10398000B0BD000090F88020012A04BF02207047DB
:10399000B0B50123242280F88030C0F8842002686A
:1039A000D0F864E0D2F800C01468BEF1000F24F033
:1039B00001041460946824F0604441EA04019160B9
:1039C0001BD09168936848F2942E5B0FC0F6000EEE
:1039D00048F29C251EF80340C0F60005EB5CE400AD
:1039E000B4FBF3F3C1F34261A0F86A301EF8013072
:1039F000695CDB00B3FBF1F301E0A0F86A30202141
:103A0000A0F86830C2F800C0C0F88410002180F827
:103A100080100020B0BD000070470000704700001B
:103A20007047000070B5026840F62F04D369116832
:103A300096681C40202C05D101F0200406F080552A
:103A40002D1936D140F60F051D400CD00125C1F2CD
:103A5000000506EA050C40F22015C0F200450D40B5
:103A600015EB0C052BD1C46EDD0616D5012C14D137
:103A700011F0100511D0102111629168490600F172
:103A8000A180B0F85C10B0F85E30B0F85E60002E37
:103A900018BF994240F00C8170BDDD0277D516F455
:103AA000800574D04FF480111162BDE87040FFF7BB
:103AB000B5BF016F0029EFD0BDE870400847DD07B2
:103AC00018BF11F4807507D001251562D0F88C500D
:103AD00045F00105C0F88C509D0706F0010E0AD58F
:103AE000BEF1000F07D002241462D0F88C4044F0DD
:103AF0000404C0F88C405C070AD5BEF1000F07D063
:103B000004251562D0F88C5045F00205C0F88C50A1
:103B10001D070CD501F0200555EA0C0507D0082536
:103B20001562D0F88C5045F00805C0F88C501D0582
:103B30000BD511F0806508D04FF400651562D0F800
:103B40008C2042F02002C0F88C20D0F88C20002A73
:103B5000A2D09A060AD501F0200106F080528918F9
:103B600004D0016F11B10446884720460168D0F89F
:103B70008C208B6802F0280203F04003D21858D141
:103B80000446FFF74DFF0020C4F88C0070BD1D06F1
:103B900006D501F0800506F40006761940F0A380F2
:103BA0005E067CD511F0400679D0116821F0400105
:103BB00011602021C0F8841000214167BDE87040E9
:103BC00000F0B2B9D0F87CC0DCF800305C68A1B27B
:103BD00000293FF461AFB0F85C60B142BFF45CAF64
:103BE000A0F85E401968890619D41168044621F4CA
:103BF00080711160916821F001019160916821F05C
:103C0000400191602021C0F888100021C166116830
:103C1000604621F010011160FDF79AFA2046B0F8D5
:103C20005C10B0F85E20891A89B2BDE87040FFF7D9
:103C300041BE0A684FF6FE7322F490720A608A68E9
:103C4000CEF6FF731A408A60C26E012A03D10A6859
:103C500022F010020A602022C0F888200022C266EA
:103C600002678A68520616D58A6822F040028A6086
:103C7000C16F81B146F6E562C0F60002044608460F
:103C80008A63FDF79DFA00283FF406AFE06F816B71
:103C9000BDE870400847BDE87040FFF7C1BE1A029A
:103CA00028D511F0804225D0BDE87040FFF7B4BEA2
:103CB00016684FF6FE7526F4907616609668CEF676
:103CC000FF752E4096602026C0F888600026C666E4
:103CD00006671668C91A26F0100389B21360BDE89A
:103CE0007040FFF7E7BD416F00293FF4D5AEBDE856
:103CF00070400847DA017FF5CFAEB1F1FF3FC8BF92
:103D000070BDBDE87040FFF7F1BD000010B5A8B16F
:103D10000446D0F8840028B9002084F880002046AA
:103D200000F026F82420C4F884002068016821F0FF
:103D300001010160204603F055F908B1012010BDD2
:103D4000A06A10B1204602F0F5FF2168486820F40F
:103D500090404860886820F02A008860086840F039
:103D6000010220460A60BDE8104003F057B8000089
:103D700070B598B00446002502A844211795CDE9F6
:103D80001555CDE91355FCF77BFA206843F6000181
:103D9000C4F20101884201D018B070BD0120CDE904
:103DA000020502A8FDF7D0FD002818BFFCF782FD30
:103DB00041F24C00C4F202004169002641F4804106
:103DC0004161416901F4804101910199016841F02B
:103DD00001010160006813A900F001000190019841
:103DE0004FF4C060139002201490072017904FF0FA
:103DF0009040CDE91566FDF789FB40F2B03508200B
:103E0000C2F20005C4F20200182185E843004FF415
:103E10000050802228622846C5E90362C5E905668C
:103E2000EE61FDF75BFA002818BFFCF743FD252083
:103E300001210022E567AC62FDF7C6FC2520FDF7F5
:103E4000B1FC18B070BD0000704700007047000062
:103E50002DE9F04182B00446D0F8840020280DD12D
:103E60000F4600294FF0010018BF002A02D102B00E
:103E7000BDE8F08194F88000012803D1022002B04F
:103E8000BDE8F081012084F880000020C4F88C0097
:103E900021201D46C4F884001646FDF717FCA4F83F
:103EA0005460A4F85660A1688046B1F5805F01D1E6
:103EB0002069B0B33E460027002084F8800008E067
:103EC00016F8010B21688862B4F856000138A4F88E
:103ED0005600B4F8560088B120468021002243469F
:103EE000009503F00BFA88B9002EE9D137F8020BE0
:103EF00021686FF35F2088620026E5E720464021B5
:103F000000224346009503F0F9F918B1032002B0EE
:103F1000BDE8F0812020C4F88400002002B0BDE894
:103F2000F0810026C8E7000070470000FEE70000AF
:103F300040F21841C4F600010A6942F480720A6135
:103F40000A6942F400720A612022C1F8FC230A695E
:103F500042F020020A610A6842F020020A600A6800
:103F600042F400720A600A6942F400720A610A6847
:103F700042F480720A600022C1F8FC230B6943F00E
:103F800020030B610B6843F020030B600B6843F4C4
:103F900000730B600B6943F480730B610B6943F48E
:103FA00000730B612123C1F8FC330B6943F020033C
:103FB0000B610B6843F020030B600B6843F4007344
:103FC0000B600B6943F400730B610B6843F480735F
:103FD0000B60C1F8FC230A6942F020020A610A68FA
:103FE00042F020020A600A6842F400720A600A691C
:103FF00042F480720A610A6942F400720A61222264
:10400000C1F8FC230A6942F020020A610A6842F002
:1040100020020A600A6842F400720A604FF4963285
:104020000B69013A43F400730B610B6843F480732E
:104030000B60C1F8FC030B6943F020030B610B68B4
:1040400043F020030B600B6843F400730B60E7D16F
:10405000704700002DE9F04F8BB0002641F24C0074
:104060000596CDE90366CDE90166C4F20200016858
:1040700040F2184541F0040101600168C4F60005F2
:1040800001F0040106910699016801AC41F00101BB
:104090000160016840F6140901F0010106910699DA
:1040A0000168C4F6000941F0020101600068214680
:1040B00000F00200069006984FF44870019001202D
:1040C0000290A5F118000127CDE90366FDF71EFA5D
:1040D0004FF48070CDE901074FF090402146CDE9C3
:1040E0000366FDF713FA4FF6FF7005F57A74069034
:1040F0004FF0030806A920460A9608964FF6FF7B64
:104100000797CDF82480FDF701FA4FF6004ACFF665
:10411000FF7A55F80A0006A940F4807045F80A00B5
:1041200028684FF6FF7740F408702860286940F44B
:1041300000702861286940F480702861286840F088
:1041400020002860C9F80060286940F0200028613C
:1041500000BF00BF00BF286840F02000286028682A
:1041600040F48070286020460A960896CDE906B68D
:10417000CDF82480FDF7CAF94FF6104BCFF6FF7B40
:1041800055F80B0006A940F4807045F80B0000BFFD
:1041900000BF00BFD5F8F89355F80A0040F48070CE
:1041A00045F80A0001200A960896079020460697CF
:1041B000CDF82480FDF7AAF9286848F2302140F4B0
:1041C0000070286040F2B410C2F20000A0F8009025
:1041D0000088884202D100F07BFC01E001F0B2F9D6
:1041E0002869002640F40070286128694FF6FF789E
:1041F00040F48070286128684FF0030940F02000E7
:10420000286040F61400C4F600000660286906A97C
:1042100040F02000286100BF00BF00BF286840F0C8
:1042200020002860286840F48070286020460A96A4
:10423000CDE90766CDF81880CDF82490FDF766F932
:1042400055F80B0006A940F4807045F80B0000BF3C
:1042500000BF00BFD5F8F87355F80A0040F480702D
:1042600045F80A0001200A96089607902046CDF8E6
:104270001880CDF82490FDF749F9286840F40070C3
:10428000286040F2B410C2F2000007800BB0BDE815
:10429000F08F000081B0ADF80200BDF8020040F2DE
:1042A0000401C2F20001088001B0704781B0ADF88E
:1042B0000200BDF8020040F27401C2F20001088061
:1042C00001B0704710B58CB040F2B810C2F20000D7
:1042D0004FF0A04100244FF4403280E816004FF424
:1042E00080710423818301210B94CDE90944CDE938
:1042F0000744CDE90544CDE90344CDE90144C0E9D3
:104300000344C0E90543016280F82440C0E90B443E
:1043100080F83810C46380F84040FCF7D3FC0028D4
:1043200018BFFCF7C7FA40F2B810C2F2000009A9A2
:104330000994FCF7C5FA002818BFFCF7BBFA40F651
:104340000000C2F63060019006207F21029000201C
:10435000049104210390CDE9051040F2B810C2F297
:10436000000001A9FCF70EFB002818BFFCF7A2FA19
:104370000CB010BDB0B588B040F2242040F200115E
:10438000C2F20000C5F2000100244FF4403280E880
:1043900016004FF48071042581830121CDE9064484
:1043A000CDE90444CDE90244CDE90044C0E9034429
:1043B000C0E90545016280F82440C0E90B4480F85B
:1043C0003810C46380F84040FCF77CFC002818BF1C
:1043D000FCF770FA48F20000C3F6F0600090062087
:1043E000CDE901047F20CDE9030540F22420C2F28B
:1043F000000069460594FCF7C5FA002818BFFCF7D1
:1044000059FA08B0B0BD000080B582B041F2480052
:10441000C4F202000168002241F004010160016859
:1044200001F0040101910199016841F0010101606D
:104430000068012100F00100009000980B20FDF7BA
:10444000C3F90B20FDF7AEF90C2001210022FDF786
:10445000BBF90C20FDF7A6F90D2001210022FDF784
:10446000B3F90D20FDF79EF90E2001210022FDF782
:10447000ABF90E2002B0BDE88040FDF793B9000013
:104480002DE9F04F87B0002441F24C000694CDE9AD
:104490000444CDE90244C4F20200016840F200483D
:1044A00041F0040101600168C4F6000801F0040154
:1044B00001910199016808F5806741F020010160D0
:1044C0000168012201F02001019101990168012593
:1044D00041F001010160016801F0010101910199C0
:1044E000016841F002010160016801F002010191DF
:1044F0000199016841F00801016000684FF47F41B3
:1045000000F00800019001983846FDF7D9F83846C8
:10451000F0210022FDF7D4F84FF090404FF4807165
:1045200000224FF4807AFDF7CBF808F50069484681
:10453000042100224FF0040BFDF7C2F840464FF46F
:1045400078710022FDF7BCF84FF6F07002AECDE9AD
:10455000020538463146CDE90444FCF7D7FF4FF059
:1045600090403146CDE902540495FCF7CFFF072077
:1045700002A931C140463146FCF7C8FF4FF09040D8
:104580003146CDE902A5CDE90444FCF7BFFF48461A
:104590003146CDE902B5CDE90444FCF7B7FF4FF44D
:1045A0004870CDE9020540463146CDE90444FCF7A8
:1045B000ADFFC020CDE902050320059040463146FD
:1045C0000495FCF7A3FF07B0BDE8F08F10B586B0E7
:1045D00040F2104042F600010024C2F20000C4F292
:1045E00000017F224FF0804CC0E9001400F1080167
:1045F000CDE90444CDE90244CDE90044FF231CC1C8
:10460000C0E90544C0E907C4FDF79CFF002818BFB6
:10461000FCF750F943F61730ADF8040037208DF859
:10462000060040F21040C2F2000001A900220294EC
:10463000CDE90444FEF7CEF8002818BFFCF73AF99C
:1046400040F20110C0F20100009040F21040C2F2AE
:10465000000069460022FEF715F8002818BFFCF795
:1046600029F906B010BD000070B5A2B0002401A861
:104670003421CDE91A44CDE91844CDE91644CDE9F9
:104680001444CDE91244CDE91044CDE90E44FBF7C2
:10469000F7FD40F2384042F60045C2F20000C4F295
:1046A0000105A92140F2E732C0E90051C0E9024208
:1046B000C0E904448461FEF721FA002818BFFCF722
:1046C000F9F84FF48050189040F23840C2F20000E0
:1046D00018A9FEF7C7FA002818BFFCF7EBF840F25C
:1046E0003840C2F20000FEF7A1FF002818BFFCF717
:1046F000E1F840F238400024C2F2000015A9CDE9EB
:1047000015441794FEF7A4F9002818BFFCF7D2F857
:1047100060200E903220CDE90F0440F23840C2F202
:1047200000000EA90022CDE91144CDE91344FEF7A3
:10473000A1FD002818BFFCF7BDF800264FF400507B
:1047400040F23844CDE906064FF00070C2F2000492
:10475000CDE90A0601A920460596CDE90366CDE913
:104760000166CDE90866CDE90C66FEF70DF9002873
:1047700018BFFCF79FF820682196B0F1804FCDE973
:104780001F661E961D9615D0A8422ED141F24C00F0
:10479000C4F202000168012241F0040101600068D6
:1047A000022100F004001C901C9840F60000C4F6A2
:1047B000000010E041F24C00C4F202000168022245
:1047C00041F0010101600068012100F001001C902E
:1047D0001C984FF090401D9202221E9200222191BF
:1047E0001DA9CDE91F22FCF791FE22B070BD00008B
:1047F00010B594B040F284400021C2F200004FF0A6
:104800008042A92340F2E734CDE90C11CDE90A1129
:10481000CDE90811CDE90611CDE90411CDE9021168
:10482000CDE90011C0E90023C0E9021401618161F2
:10483000FEF764F9002818BFFCF73CF84FF48050ED
:104840000A9040F28440C2F200000AA9FEF70AFA78
:10485000002818BFFCF72EF840F28440C2F2000096
:10486000FEF7E4FE002818BFFCF724F840F284406D
:104870000024C2F2000007A907940994FEF7E8F8A3
:10488000002818BFFCF716F8602000903220CDE910
:104890000104049440F28444C2F2000469462046B4
:1048A0000422FEF7E7FC002818BFFCF703F8206895
:1048B0000021B0F1804F1391CDE9111110910F91AA
:1048C00019D042F60041C4F2010188422ED141F2D2
:1048D0004C00C4F202000168012241F004010160B1
:1048E0000068022100F004000E900E9840F60000CF
:1048F000C4F6000010E041F24C00C4F2020001686E
:10490000022241F0010101600068012100F0010074
:104910000E900E984FF090400F92022210920022BB
:1049200013910FA9CDE91122FCF7F0FD14B010BDD1
:1049300010B590B040F2D04040F200420021C2F2E7
:104940000000C4F200024F234FF6FF74CDE90E11B0
:10495000CDE90C11CDE90A11CDE90811CDE9061117
:10496000CDE90411CDE90211CDE90011C0E9002320
:10497000C0E9021401618161FEF7C0F8002818BF88
:10498000FBF798FF4FF480500C9040F2D040C2F2F9
:1049900000000CA9FEF766F9002818BFFBF78AFF94
:1049A00040F2D040C2F20000FEF708FB002818BF1A
:1049B000FBF780FF042007905020089040F2D04081
:1049C0000024C2F2000007A909940B94FEF706FF29
:1049D000002818BFFBF76EFF40F2D040C2F2000083
:1049E00004A904940694FEF733F8002818BFFBF7D7
:1049F00061FF002001210090CDE90110039040F2F9
:104A0000D040C2F2000069460022FEF723FA0028D7
:104A100018BFFBF74FFF10B010BD000080B540F28B
:104A20001C5043F60001C2F20000C4F20101002351
:104A30004FF00C0C4FF4165280E80E00C0E903331F
:104A4000C0E905C3C0E90733C0E90933FFF75EF9E0
:104A5000002818BFFBF72EFF40F21C50C2F20000E6
:104A60000021FEF78FFF002818BFFBF723FF40F25D
:104A70001C50C2F200000021FEF73AFF002818BFC8
:104A8000FBF718FF40F21C50C2F20000FEF7CCFE0C
:104A9000002818BFFBF70EFF40F21C5040F2D06117
:104AA000C2F20000C2F200018022FEF7D9FE40F2FD
:104AB000B030C2F200000068016821F0040101601A
:104AC00080BD0000FEE70000FEE700007047000028
:104AD00040F21840C4F600000169002241F48071E0
:104AE000016101694FF0030C41F400710161C0F8EC
:104AF000FC23016941F020010161016841F02001BE
:104B00000160016841F400710160016941F40071C4
:104B10000161016841F4807101600121C0F8FC135A
:104B2000036943F020030361036843F0200303603B
:104B3000036843F400730360036943F48073036103
:104B4000036943F400730361C0F8FC13036943F085
:104B500020030361036843F020030360036843F408
:104B600000730360036943F400730361036843F453
:104B700080730360C0F8FC23026942F020020261E6
:104B8000026842F020020260026842F40072026091
:104B9000026942F480720261026942F400720261A9
:104BA0001022C0F8FC23026942F020020261026870
:104BB00042F020020260026842F400720260026960
:104BC00042F400720261026842F48072026041F2B3
:104BD0009072C0F8FC23026942F020020261026870
:104BE00042F020020260026842F400720260026930
:104BF00042F480720261026942F400720261602232
:104C0000C0F8FC23026942F020020261026842F00F
:104C100020020260026842F400720260026942F4FB
:104C200000720261026842F4807202604FF41C520A
:104C3000C0F8FC23026942F020020261026842F0DF
:104C400020020260026842F400720260026942F4CB
:104C500080720261026942F4007202616122C0F84E
:104C6000FC23026942F020020261026842F0200245
:104C70000260026842F400720260026942F400724B
:104C80000261026842F480720260C0F8FC1301699C
:104C900041F020010161016841F0200101600168DB
:104CA00041F400710160016941F4807101610169A1
:104CB00041F4007101614621C0F8FC13016941F023
:104CC00020010161016841F020010160016841F4A7
:104CD00000710160016941F400710161016841F4F2
:104CE000807101600221C0F8FC13026942F02002C9
:104CF0000261026842F020020260026842F400721F
:104D00000260026942F480720261026942F4007238
:104D100002611322C0F8FC23026942F02002026102
:104D2000026842F020020260026842F400720260EF
:104D3000026942F400720261026842F48072026009
:104D400048F21002C0F8FC23026942F0200202611E
:104D5000026842F020020260026842F400720260BF
:104D6000026942F480720261026942F400720261D7
:104D70001222C0F8FC23026942F02002026102689C
:104D800042F020020260026842F40072026002698E
:104D900042F400720261026842F48072026048F2DA
:104DA000FE02C0F8FC23026942F0200202610268A0
:104DB00042F020020260026842F40072026002695E
:104DC00042F480720261026942F400720261C0F82A
:104DD000FC13016941F020010161016841F02001EB
:104DE0000160016841F400710160016941F40071E2
:104DF0000161016841F4807101604FF4A061C0F865
:104E0000FC13016941F020010161016841F02001BA
:104E10000160016841F400710160016941F4807131
:104E20000161016941F400710161C0F8FCC30269CC
:104E300042F020020261026842F020020260026831
:104E400042F400720260026942F400720261026878
:104E500042F48072026041F23002C0F8FC23026921
:104E600042F020020261026842F020020260026801
:104E700042F400720260026942F4807202610269C7
:104E800042F4007202613022C0F8FC23026942F051
:104E900020020261026842F020020260026842F4CD
:104EA00000720260026942F400720261026842F418
:104EB0008072026040F20332C0F8FC23036943F0C1
:104EC00020030361036843F020030360036843F495
:104ED00000730360036943F480730361036943F45F
:104EE000007303613123C0F8FC33036943F02003EE
:104EF0000361036843F020030360036843F4007315
:104F00000360036943F400730361036843F480732F
:104F10000360C0F8FC23036943F0200303610368C6
:104F200043F020030360036843F4007303600369E4
:104F300043F480730361036943F400730361322314
:104F4000C0F8FC33036943F020030361036843F0B6
:104F500020030360036843F400730360036943F4B0
:104F600000730361036843F480730360C0F8FC239B
:104F7000036943F020030361036843F020030360E7
:104F8000036843F400730360036943F480730361AF
:104F9000036943F4007303613323C0F8FC330369EE
:104FA00043F020030361036843F0200303600368B8
:104FB00043F400730360036943F4007303610368FF
:104FC00043F4807303604FF44073C0F8FC3301690D
:104FD00041F020010161016841F020010160016898
:104FE00041F400710160016941F48071016101695E
:104FF00041F4007101613421C0F8FC13016941F0F2
:1050000020010161016841F020010160016841F463
:1050100000710160016941F400710161016841F4AE
:1050200080710160C0F8FCC3016941F02001016199
:10503000016841F020010160016841F400710160E4
:10504000016941F480710161016941F400710161FC
:105050003521C0F8FC13016941F0200101610168AC
:1050600041F020010160016841F4007101600169B3
:1050700041F400710161016841F480710160C0F880
:10508000FC23016941F020010161016841F0200128
:105090000160016841F400710160016941F48071AF
:1050A0000161016941F4007101613621C0F8FC130E
:1050B000016941F020010161016841F020010160B6
:1050C000016841F400710160016941F400710161FE
:1050D000016841F4807101601421C0F8FC1301697A
:1050E00041F020010161016841F020010160016887
:1050F00041F400710160016941F48071016101694D
:1051000041F4007101613721C0F8FC13016941F0DD
:1051100020010161016841F020010160016841F452
:1051200000710160016941F400710161016841F49D
:1051300080710160C0F8FC23016941F02001016128
:10514000016841F020010160016841F400710160D3
:10515000016941F480710161016941F400710161EB
:105160003821C0F8FC13016941F020010161016898
:1051700041F020010160016841F4007101600169A2
:1051800041F400710161016841F480710160C0F86F
:10519000FC23016941F020010161016841F0200117
:1051A0000160016841F400710160016941F480719E
:1051B0000161016941F4007101613921C0F8FC13FA
:1051C000016941F020010161016841F020010160A5
:1051D000016841F400710160016941F400710161ED
:1051E000016841F480710160C0F8FC23016941F05D
:1051F00020010161016841F020010160016841F472
:1052000000710160016941F480710161016941F43B
:10521000007101613A21C0F8FC13016941F02001DD
:105220000161016841F020010160016841F40071F1
:105230000160016941F400710161016841F480710C
:105240000160C0F8FC33016941F02001016101688F
:1052500041F020010160016841F4007101600169C1
:1052600041F480710161016941F4007101613B21E8
:10527000C0F8FC13016941F020010161016841F0AF
:1052800020010160016841F400710160016941F48D
:1052900000710161016841F480710160C0F8FCC3D4
:1052A000016941F020010161016841F020010160C4
:1052B000016841F400710160016941F4807101618C
:1052C000016941F4007101613C21C0F8FC130169DE
:1052D00041F020010161016841F020010160016895
:1052E00041F400710160016941F4007101610168DC
:1052F00041F480710160C0F8FC23016941F0200194
:105300000161016841F020010160016841F4007110
:105310000160016941F480710161016941F400712A
:1053200001613D21C0F8FC13016941F020010161D8
:10533000016841F020010160016841F400710160E1
:10534000016941F400710161016841F480710160FB
:105350004FF4A051C0F8FC13016941F02001016134
:10536000016841F020010160016841F400710160B1
:10537000016941F480710161016941F400710161C9
:105380009221C0F8FC13016941F02001016101681C
:1053900041F020010160016841F400710160016980
:1053A00041F400710161016841F4807101604FF4C2
:1053B0000071C0F8FC13016941F02001016101682E
:1053C00041F020010160016841F400710160016950
:1053D00041F480710161016941F40071016193211F
:1053E000C0F8FC13016941F020010161016841F03E
:1053F00020010160016841F400710160016941F41C
:1054000000710161016841F480710160C0F8FC2302
:10541000016941F020010161016841F02001016052
:10542000016841F400710160016941F4807101611A
:10543000016941F4007101619021C0F8FC13016918
:1054400041F020010161016841F020010160016823
:1054500041F400710160016941F40071016101686A
:1054600041F48071016040F60D01C0F8FC13016940
:1054700041F020010161016841F0200101600168F3
:1054800041F400710160016941F4807101610169B9
:1054900041F400710161C0F8FCC3016941F02001D1
:1054A0000161016841F020010160016841F400716F
:1054B0000160016941F400710161016841F480718A
:1054C000016041F21801C0F8FC13016941F02001AC
:1054D0000161016841F020010160016841F400713F
:1054E0000160016941F480710161016941F4007159
:1054F00001610721C0F8FC13016941F0200101613D
:10550000016841F020010160016841F4007101600F
:10551000016941F400710161016841F48071016029
:1055200040F27311C0F8FC13016941F020010161E0
:10553000016841F020010160016841F400710160DF
:10554000704700002DE9F04F81B040F21844C4F6D6
:10555000000420694FF0120940F480702061206936
:10556000002540F400702061E320C4F8FC032069AA
:10557000112640F02000206120684FF0130B40F00E
:10558000200020602068102740F40070206020690F
:105590004FF0070840F400702061206840F48070EC
:1055A000206043F20800C4F8FC03206940F02000AA
:1055B0002061206840F020002060206840F40070E6
:1055C0002060206940F480702061206940F4007000
:1055D0002061E720C4F8FC03206940F0200020612E
:1055E000206840F020002060206840F400702060B7
:1055F000206940F400702061206840F480702060D1
:10560000C4F8FC93206940F020002061206840F03D
:1056100020002060206840F400702060206940F481
:1056200080702061206940F400702061EF20C4F890
:10563000FC03206940F020002061206840F0200039
:105640002060206840F400702060206940F4007001
:105650002061206840F48070206041F23120C4F85D
:10566000FC03206940F020002061206840F0200009
:105670002060206840F400702060206940F4807051
:105680002061206940F4007020610120C4F8FC030F
:10569000206940F020002061206840F02000206058
:1056A000206840F400702060206940F400702061A0
:1056B000206840F480702060C4F8FC53206940F0FA
:1056C00020002061206840F020002060206840F425
:1056D00000702060206940F480702061206940F4EF
:1056E000007020610220C4F8FC03206940F0200013
:1056F0002061206840F020002060206840F40070A5
:105700002060206940F400702061206840F48070BF
:1057100020604FF4E060C4F8FC03206940F02000F2
:105720002061206840F020002060206840F4007074
:105730002060206940F480702061206940F400708E
:1057400020610320C4F8FC03206940F020002061A0
:10575000206840F020002060206840F40070206045
:10576000206940F400702061206840F4807020605F
:1057700041F23000C4F8FC03206940F020002061B1
:10578000206840F020002060206840F40070206015
:10579000206940F480702061206940F4007020612D
:1057A0000420C4F8FC03206940F020002061206838
:1057B00040F020002060206840F4007020602069E4
:1057C00040F400702061206840F480702060C4F8CC
:1057D000FC53206940F020002061206840F0200048
:1057E0002060206840F400702060206940F48070E0
:1057F0002061206940F4007020610820C4F8FC0397
:10580000206940F020002061206840F020002060E6
:10581000206840F400702060206940F4007020612E
:10582000206840F48070206040F20720C4F8FC0338
:10583000206940F020002061206840F020002060B6
:10584000206840F400702060206940F4807020617E
:10585000206940F4007020610920C4F8FC0320692D
:1058600040F020002061206840F020002060206887
:1058700040F400702060206940F4007020612068CE
:1058800040F480702060C4F8FC53206940F0200090
:105890002061206840F020002060206840F4007003
:1058A0002060206940F480702061206940F400701D
:1058B00020610A20C4F8FC03206940F02000206128
:1058C000206840F020002060206840F400702060D4
:1058D000206940F400702061206840F480702060EE
:1058E000C4F8FC53206940F020002061206840F09B
:1058F00020002060206840F400702060206940F49F
:1059000080702061206940F4007020610C20C4F890
:10591000FC03206940F020002061206840F0200056
:105920002060206840F400702060206940F400701E
:105930002061206840F480702060C4F8FC53206926
:1059400040F020002061206840F0200020602068A6
:1059500040F400702060206940F48070206120696C
:1059600040F4007020610D20C4F8FC03206940F071
:1059700020002061206840F020002060206840F472
:1059800000702060206940F400702061206840F4BD
:1059900080702060C4F8FC53206940F02000206132
:1059A000206840F020002060206840F400702060F3
:1059B000206940F480702061206940F4007020610B
:1059C0000F20C4F8FC03206940F02000206120680B
:1059D00040F020002060206840F4007020602069C2
:1059E00040F400702061206840F480702060C4F8AA
:1059F000FC53206940F020002061206840F0200026
:105A00002060206840F400702060206940F48070BD
:105A10002061206940F4007020611020C4F8FC036C
:105A2000206940F020002061206840F020002060C4
:105A3000206840F400702060206940F4007020610C
:105A4000206840F480702060C4F8FC53206940F066
:105A500020002061206840F020002060206840F491
:105A600000702060206940F480702061206940F45B
:105A700000702061C4F8FC63206940F020002061C0
:105A8000206840F020002060206840F40070206012
:105A9000206940F400702061206840F4807020602C
:105AA0000720C4F8FC03206940F020002061206832
:105AB00040F020002060206840F4007020602069E1
:105AC00040F480702061206940F400702061C4F8C7
:105AD000FC93206940F020002061206840F0200005
